{
  "_format": "hh-sol-artifact-1",
  "contractName": "NFT",
  "sourceName": "contracts/NFT.sol",
  "abi": [
    {
      "inputs": [],
      "stateMutability": "nonpayable",
      "type": "constructor"
    },
    {
      "anonymous": false,
      "inputs": [
        {
          "indexed": true,
          "internalType": "address",
          "name": "owner",
          "type": "address"
        },
        {
          "indexed": true,
          "internalType": "address",
          "name": "approved",
          "type": "address"
        },
        {
          "indexed": true,
          "internalType": "uint256",
          "name": "tokenId",
          "type": "uint256"
        }
      ],
      "name": "Approval",
      "type": "event"
    },
    {
      "anonymous": false,
      "inputs": [
        {
          "indexed": true,
          "internalType": "address",
          "name": "owner",
          "type": "address"
        },
        {
          "indexed": true,
          "internalType": "address",
          "name": "operator",
          "type": "address"
        },
        {
          "indexed": false,
          "internalType": "bool",
          "name": "approved",
          "type": "bool"
        }
      ],
      "name": "ApprovalForAll",
      "type": "event"
    },
    {
      "anonymous": false,
      "inputs": [
        {
          "indexed": false,
          "internalType": "uint256",
          "name": "_fromTokenId",
          "type": "uint256"
        },
        {
          "indexed": false,
          "internalType": "uint256",
          "name": "_toTokenId",
          "type": "uint256"
        }
      ],
      "name": "BatchMetadataUpdate",
      "type": "event"
    },
    {
      "anonymous": false,
      "inputs": [
        {
          "indexed": false,
          "internalType": "uint256",
          "name": "_tokenId",
          "type": "uint256"
        }
      ],
      "name": "MetadataUpdate",
      "type": "event"
    },
    {
      "anonymous": false,
      "inputs": [
        {
          "indexed": true,
          "internalType": "address",
          "name": "from",
          "type": "address"
        },
        {
          "indexed": true,
          "internalType": "address",
          "name": "to",
          "type": "address"
        },
        {
          "indexed": true,
          "internalType": "uint256",
          "name": "tokenId",
          "type": "uint256"
        }
      ],
      "name": "Transfer",
      "type": "event"
    },
    {
      "inputs": [
        {
          "internalType": "address",
          "name": "to",
          "type": "address"
        },
        {
          "internalType": "uint256",
          "name": "tokenId",
          "type": "uint256"
        }
      ],
      "name": "approve",
      "outputs": [],
      "stateMutability": "nonpayable",
      "type": "function"
    },
    {
      "inputs": [
        {
          "internalType": "address",
          "name": "owner",
          "type": "address"
        }
      ],
      "name": "balanceOf",
      "outputs": [
        {
          "internalType": "uint256",
          "name": "",
          "type": "uint256"
        }
      ],
      "stateMutability": "view",
      "type": "function"
    },
    {
      "inputs": [
        {
          "internalType": "uint256",
          "name": "tokenId",
          "type": "uint256"
        }
      ],
      "name": "getApproved",
      "outputs": [
        {
          "internalType": "address",
          "name": "",
          "type": "address"
        }
      ],
      "stateMutability": "view",
      "type": "function"
    },
    {
      "inputs": [
        {
          "internalType": "address",
          "name": "owner",
          "type": "address"
        },
        {
          "internalType": "address",
          "name": "operator",
          "type": "address"
        }
      ],
      "name": "isApprovedForAll",
      "outputs": [
        {
          "internalType": "bool",
          "name": "",
          "type": "bool"
        }
      ],
      "stateMutability": "view",
      "type": "function"
    },
    {
      "inputs": [
        {
          "internalType": "string",
          "name": "_tokenUri",
          "type": "string"
        }
      ],
      "name": "mint",
      "outputs": [
        {
          "internalType": "uint256",
          "name": "",
          "type": "uint256"
        }
      ],
      "stateMutability": "nonpayable",
      "type": "function"
    },
    {
      "inputs": [],
      "name": "name",
      "outputs": [
        {
          "internalType": "string",
          "name": "",
          "type": "string"
        }
      ],
      "stateMutability": "view",
      "type": "function"
    },
    {
      "inputs": [
        {
          "internalType": "uint256",
          "name": "tokenId",
          "type": "uint256"
        }
      ],
      "name": "ownerOf",
      "outputs": [
        {
          "internalType": "address",
          "name": "",
          "type": "address"
        }
      ],
      "stateMutability": "view",
      "type": "function"
    },
    {
      "inputs": [
        {
          "internalType": "address",
          "name": "from",
          "type": "address"
        },
        {
          "internalType": "address",
          "name": "to",
          "type": "address"
        },
        {
          "internalType": "uint256",
          "name": "tokenId",
          "type": "uint256"
        }
      ],
      "name": "safeTransferFrom",
      "outputs": [],
      "stateMutability": "nonpayable",
      "type": "function"
    },
    {
      "inputs": [
        {
          "internalType": "address",
          "name": "from",
          "type": "address"
        },
        {
          "internalType": "address",
          "name": "to",
          "type": "address"
        },
        {
          "internalType": "uint256",
          "name": "tokenId",
          "type": "uint256"
        },
        {
          "internalType": "bytes",
          "name": "data",
          "type": "bytes"
        }
      ],
      "name": "safeTransferFrom",
      "outputs": [],
      "stateMutability": "nonpayable",
      "type": "function"
    },
    {
      "inputs": [
        {
          "internalType": "address",
          "name": "operator",
          "type": "address"
        },
        {
          "internalType": "bool",
          "name": "approved",
          "type": "bool"
        }
      ],
      "name": "setApprovalForAll",
      "outputs": [],
      "stateMutability": "nonpayable",
      "type": "function"
    },
    {
      "inputs": [
        {
          "internalType": "bytes4",
          "name": "interfaceId",
          "type": "bytes4"
        }
      ],
      "name": "supportsInterface",
      "outputs": [
        {
          "internalType": "bool",
          "name": "",
          "type": "bool"
        }
      ],
      "stateMutability": "view",
      "type": "function"
    },
    {
      "inputs": [],
      "name": "symbol",
      "outputs": [
        {
          "internalType": "string",
          "name": "",
          "type": "string"
        }
      ],
      "stateMutability": "view",
      "type": "function"
    },
    {
      "inputs": [],
      "name": "tokenId",
      "outputs": [
        {
          "internalType": "uint256",
          "name": "_value",
          "type": "uint256"
        }
      ],
      "stateMutability": "view",
      "type": "function"
    },
    {
      "inputs": [
        {
          "internalType": "uint256",
          "name": "tokenId",
          "type": "uint256"
        }
      ],
      "name": "tokenURI",
      "outputs": [
        {
          "internalType": "string",
          "name": "",
          "type": "string"
        }
      ],
      "stateMutability": "view",
      "type": "function"
    },
    {
      "inputs": [
        {
          "internalType": "address",
          "name": "from",
          "type": "address"
        },
        {
          "internalType": "address",
          "name": "to",
          "type": "address"
        },
        {
          "internalType": "uint256",
          "name": "tokenId",
          "type": "uint256"
        }
      ],
      "name": "transferFrom",
      "outputs": [],
      "stateMutability": "nonpayable",
      "type": "function"
    }
  ],
  "bytecode": "0x60806040523480156200001157600080fd5b506040518060400160405280600681526020017f6e6f4e616d6500000000000000000000000000000000000000000000000000008152506040518060400160405280600381526020017f4e4e45000000000000000000000000000000000000000000000000000000000081525081600090816200008f919062000324565b508060019081620000a1919062000324565b5050506200040b565b600081519050919050565b7f4e487b7100000000000000000000000000000000000000000000000000000000600052604160045260246000fd5b7f4e487b7100000000000000000000000000000000000000000000000000000000600052602260045260246000fd5b600060028204905060018216806200012c57607f821691505b602082108103620001425762000141620000e4565b5b50919050565b60008190508160005260206000209050919050565b60006020601f8301049050919050565b600082821b905092915050565b600060088302620001ac7fffffffffffffffffffffffffffffffffffffffffffffffffffffffffffffffff826200016d565b620001b886836200016d565b95508019841693508086168417925050509392505050565b6000819050919050565b6000819050919050565b600062000205620001ff620001f984620001d0565b620001da565b620001d0565b9050919050565b6000819050919050565b6200022183620001e4565b6200023962000230826200020c565b8484546200017a565b825550505050565b600090565b6200025062000241565b6200025d81848462000216565b505050565b5b8181101562000285576200027960008262000246565b60018101905062000263565b5050565b601f821115620002d4576200029e8162000148565b620002a9846200015d565b81016020851015620002b9578190505b620002d1620002c8856200015d565b83018262000262565b50505b505050565b600082821c905092915050565b6000620002f960001984600802620002d9565b1980831691505092915050565b6000620003148383620002e6565b9150826002028217905092915050565b6200032f82620000aa565b67ffffffffffffffff8111156200034b576200034a620000b5565b5b62000357825462000113565b6200036482828562000289565b600060209050601f8311600181146200039c576000841562000387578287015190505b62000393858262000306565b86555062000403565b601f198416620003ac8662000148565b60005b82811015620003d657848901518255600182019150602085019450602081019050620003af565b86831015620003f65784890151620003f2601f891682620002e6565b8355505b6001600288020188555050505b505050505050565b612b7a806200041b6000396000f3fe608060405234801561001057600080fd5b50600436106100f55760003560e01c80636352211e11610097578063b88d4fde11610066578063b88d4fde14610284578063c87b56dd146102a0578063d85d3d27146102d0578063e985e9c514610300576100f5565b80636352211e146101ea57806370a082311461021a57806395d89b411461024a578063a22cb46514610268576100f5565b8063095ea7b3116100d3578063095ea7b31461017857806317d70f7c1461019457806323b872dd146101b257806342842e0e146101ce576100f5565b806301ffc9a7146100fa57806306fdde031461012a578063081812fc14610148575b600080fd5b610114600480360381019061010f9190611a7c565b610330565b6040516101219190611ac4565b60405180910390f35b610132610391565b60405161013f9190611b6f565b60405180910390f35b610162600480360381019061015d9190611bc7565b610423565b60405161016f9190611c35565b60405180910390f35b610192600480360381019061018d9190611c7c565b610469565b005b61019c610580565b6040516101a99190611ccb565b60405180910390f35b6101cc60048036038101906101c79190611ce6565b61058c565b005b6101e860048036038101906101e39190611ce6565b6105ec565b005b61020460048036038101906101ff9190611bc7565b61060c565b6040516102119190611c35565b60405180910390f35b610234600480360381019061022f9190611d39565b610692565b6040516102419190611ccb565b60405180910390f35b610252610749565b60405161025f9190611b6f565b60405180910390f35b610282600480360381019061027d9190611d92565b6107db565b005b61029e60048036038101906102999190611f07565b6107f1565b005b6102ba60048036038101906102b59190611bc7565b610853565b6040516102c79190611b6f565b60405180910390f35b6102ea60048036038101906102e5919061202b565b610965565b6040516102f79190611ccb565b60405180910390f35b61031a60048036038101906103159190612074565b61099c565b6040516103279190611ac4565b60405180910390f35b6000634906490660e01b7bffffffffffffffffffffffffffffffffffffffffffffffffffffffff1916827bffffffffffffffffffffffffffffffffffffffffffffffffffffffff1916148061038a575061038982610a30565b5b9050919050565b6060600080546103a0906120e3565b80601f01602080910402602001604051908101604052809291908181526020018280546103cc906120e3565b80156104195780601f106103ee57610100808354040283529160200191610419565b820191906000526020600020905b8154815290600101906020018083116103fc57829003601f168201915b5050505050905090565b600061042e82610b12565b6004600083815260200190815260200160002060009054906101000a900473ffffffffffffffffffffffffffffffffffffffff169050919050565b60006104748261060c565b90508073ffffffffffffffffffffffffffffffffffffffff168373ffffffffffffffffffffffffffffffffffffffff16036104e4576040517f08c379a00000000000000000000000000000000000000000000000000000000081526004016104db90612186565b60405180910390fd5b8073ffffffffffffffffffffffffffffffffffffffff16610503610b5d565b73ffffffffffffffffffffffffffffffffffffffff16148061053257506105318161052c610b5d565b61099c565b5b610571576040517f08c379a000000000000000000000000000000000000000000000000000000000815260040161056890612218565b60405180910390fd5b61057b8383610b65565b505050565b60078060000154905081565b61059d610597610b5d565b82610c1e565b6105dc576040517f08c379a00000000000000000000000000000000000000000000000000000000081526004016105d3906122aa565b60405180910390fd5b6105e7838383610cb3565b505050565b610607838383604051806020016040528060008152506107f1565b505050565b60008061061883610fac565b9050600073ffffffffffffffffffffffffffffffffffffffff168173ffffffffffffffffffffffffffffffffffffffff1603610689576040517f08c379a000000000000000000000000000000000000000000000000000000000815260040161068090612316565b60405180910390fd5b80915050919050565b60008073ffffffffffffffffffffffffffffffffffffffff168273ffffffffffffffffffffffffffffffffffffffff1603610702576040517f08c379a00000000000000000000000000000000000000000000000000000000081526004016106f9906123a8565b60405180910390fd5b600360008373ffffffffffffffffffffffffffffffffffffffff1673ffffffffffffffffffffffffffffffffffffffff168152602001908152602001600020549050919050565b606060018054610758906120e3565b80601f0160208091040260200160405190810160405280929190818152602001828054610784906120e3565b80156107d15780601f106107a6576101008083540402835291602001916107d1565b820191906000526020600020905b8154815290600101906020018083116107b457829003601f168201915b5050505050905090565b6107ed6107e6610b5d565b8383610fe9565b5050565b6108026107fc610b5d565b83610c1e565b610841576040517f08c379a0000000000000000000000000000000000000000000000000000000008152600401610838906122aa565b60405180910390fd5b61084d84848484611155565b50505050565b606061085e82610b12565b600060066000848152602001908152602001600020805461087e906120e3565b80601f01602080910402602001604051908101604052809291908181526020018280546108aa906120e3565b80156108f75780601f106108cc576101008083540402835291602001916108f7565b820191906000526020600020905b8154815290600101906020018083116108da57829003601f168201915b5050505050905060006109086111b1565b9050600081510361091d578192505050610960565b60008251111561095257808260405160200161093a929190612404565b60405160208183030381529060405292505050610960565b61095b846111c8565b925050505b919050565b60006109716007611230565b600061097d6007611246565b90506109893382611254565b6109938184611272565b80915050919050565b6000600560008473ffffffffffffffffffffffffffffffffffffffff1673ffffffffffffffffffffffffffffffffffffffff16815260200190815260200160002060008373ffffffffffffffffffffffffffffffffffffffff1673ffffffffffffffffffffffffffffffffffffffff16815260200190815260200160002060009054906101000a900460ff16905092915050565b60007f80ac58cd000000000000000000000000000000000000000000000000000000007bffffffffffffffffffffffffffffffffffffffffffffffffffffffff1916827bffffffffffffffffffffffffffffffffffffffffffffffffffffffff19161480610afb57507f5b5e139f000000000000000000000000000000000000000000000000000000007bffffffffffffffffffffffffffffffffffffffffffffffffffffffff1916827bffffffffffffffffffffffffffffffffffffffffffffffffffffffff1916145b80610b0b5750610b0a82611316565b5b9050919050565b610b1b81611380565b610b5a576040517f08c379a0000000000000000000000000000000000000000000000000000000008152600401610b5190612316565b60405180910390fd5b50565b600033905090565b816004600083815260200190815260200160002060006101000a81548173ffffffffffffffffffffffffffffffffffffffff021916908373ffffffffffffffffffffffffffffffffffffffff160217905550808273ffffffffffffffffffffffffffffffffffffffff16610bd88361060c565b73ffffffffffffffffffffffffffffffffffffffff167f8c5be1e5ebec7d5bd14f71427d1e84f3dd0314c0f7b2291e5b200ac8c7c3b92560405160405180910390a45050565b600080610c2a8361060c565b90508073ffffffffffffffffffffffffffffffffffffffff168473ffffffffffffffffffffffffffffffffffffffff161480610c6c5750610c6b818561099c565b5b80610caa57508373ffffffffffffffffffffffffffffffffffffffff16610c9284610423565b73ffffffffffffffffffffffffffffffffffffffff16145b91505092915050565b8273ffffffffffffffffffffffffffffffffffffffff16610cd38261060c565b73ffffffffffffffffffffffffffffffffffffffff1614610d29576040517f08c379a0000000000000000000000000000000000000000000000000000000008152600401610d209061249a565b60405180910390fd5b600073ffffffffffffffffffffffffffffffffffffffff168273ffffffffffffffffffffffffffffffffffffffff1603610d98576040517f08c379a0000000000000000000000000000000000000000000000000000000008152600401610d8f9061252c565b60405180910390fd5b610da583838360016113c1565b8273ffffffffffffffffffffffffffffffffffffffff16610dc58261060c565b73ffffffffffffffffffffffffffffffffffffffff1614610e1b576040517f08c379a0000000000000000000000000000000000000000000000000000000008152600401610e129061249a565b60405180910390fd5b6004600082815260200190815260200160002060006101000a81549073ffffffffffffffffffffffffffffffffffffffff02191690556001600360008573ffffffffffffffffffffffffffffffffffffffff1673ffffffffffffffffffffffffffffffffffffffff168152602001908152602001600020600082825403925050819055506001600360008473ffffffffffffffffffffffffffffffffffffffff1673ffffffffffffffffffffffffffffffffffffffff16815260200190815260200160002060008282540192505081905550816002600083815260200190815260200160002060006101000a81548173ffffffffffffffffffffffffffffffffffffffff021916908373ffffffffffffffffffffffffffffffffffffffff160217905550808273ffffffffffffffffffffffffffffffffffffffff168473ffffffffffffffffffffffffffffffffffffffff167fddf252ad1be2c89b69c2b068fc378daa952ba7f163c4a11628f55a4df523b3ef60405160405180910390a4610fa783838360016113c7565b505050565b60006002600083815260200190815260200160002060009054906101000a900473ffffffffffffffffffffffffffffffffffffffff169050919050565b8173ffffffffffffffffffffffffffffffffffffffff168373ffffffffffffffffffffffffffffffffffffffff1603611057576040517f08c379a000000000000000000000000000000000000000000000000000000000815260040161104e90612598565b60405180910390fd5b80600560008573ffffffffffffffffffffffffffffffffffffffff1673ffffffffffffffffffffffffffffffffffffffff16815260200190815260200160002060008473ffffffffffffffffffffffffffffffffffffffff1673ffffffffffffffffffffffffffffffffffffffff16815260200190815260200160002060006101000a81548160ff0219169083151502179055508173ffffffffffffffffffffffffffffffffffffffff168373ffffffffffffffffffffffffffffffffffffffff167f17307eab39ab6107e8899845ad3d59bd9653f200f220920489ca2b5937696c31836040516111489190611ac4565b60405180910390a3505050565b611160848484610cb3565b61116c848484846113cd565b6111ab576040517f08c379a00000000000000000000000000000000000000000000000000000000081526004016111a29061262a565b60405180910390fd5b50505050565b606060405180602001604052806000815250905090565b60606111d382610b12565b60006111dd6111b1565b905060008151116111fd5760405180602001604052806000815250611228565b8061120784611554565b604051602001611218929190612404565b6040516020818303038152906040525b915050919050565b6001816000016000828254019250508190555050565b600081600001549050919050565b61126e828260405180602001604052806000815250611622565b5050565b61127b82611380565b6112ba576040517f08c379a00000000000000000000000000000000000000000000000000000000081526004016112b1906126bc565b60405180910390fd5b806006600084815260200190815260200160002090816112da9190612888565b507ff8e1a15aba9398e019f0b49df1a4fde98ee17ae345cb5f6b5e2c27f5033e8ce78260405161130a9190611ccb565b60405180910390a15050565b60007f01ffc9a7000000000000000000000000000000000000000000000000000000007bffffffffffffffffffffffffffffffffffffffffffffffffffffffff1916827bffffffffffffffffffffffffffffffffffffffffffffffffffffffff1916149050919050565b60008073ffffffffffffffffffffffffffffffffffffffff166113a283610fac565b73ffffffffffffffffffffffffffffffffffffffff1614159050919050565b50505050565b50505050565b60006113ee8473ffffffffffffffffffffffffffffffffffffffff1661167d565b15611547578373ffffffffffffffffffffffffffffffffffffffff1663150b7a02611417610b5d565b8786866040518563ffffffff1660e01b815260040161143994939291906129af565b6020604051808303816000875af192505050801561147557506040513d601f19601f820116820180604052508101906114729190612a10565b60015b6114f7573d80600081146114a5576040519150601f19603f3d011682016040523d82523d6000602084013e6114aa565b606091505b5060008151036114ef576040517f08c379a00000000000000000000000000000000000000000000000000000000081526004016114e69061262a565b60405180910390fd5b805181602001fd5b63150b7a0260e01b7bffffffffffffffffffffffffffffffffffffffffffffffffffffffff1916817bffffffffffffffffffffffffffffffffffffffffffffffffffffffff19161491505061154c565b600190505b949350505050565b606060006001611563846116a0565b01905060008167ffffffffffffffff81111561158257611581611ddc565b5b6040519080825280601f01601f1916602001820160405280156115b45781602001600182028036833780820191505090505b509050600082602001820190505b600115611617578080600190039150507f3031323334353637383961626364656600000000000000000000000000000000600a86061a8153600a858161160b5761160a612a3d565b5b049450600085036115c2575b819350505050919050565b61162c83836117f3565b61163960008484846113cd565b611678576040517f08c379a000000000000000000000000000000000000000000000000000000000815260040161166f9061262a565b60405180910390fd5b505050565b6000808273ffffffffffffffffffffffffffffffffffffffff163b119050919050565b600080600090507a184f03e93ff9f4daa797ed6e38ed64bf6a1f01000000000000000083106116fe577a184f03e93ff9f4daa797ed6e38ed64bf6a1f01000000000000000083816116f4576116f3612a3d565b5b0492506040810190505b6d04ee2d6d415b85acef8100000000831061173b576d04ee2d6d415b85acef8100000000838161173157611730612a3d565b5b0492506020810190505b662386f26fc10000831061176a57662386f26fc1000083816117605761175f612a3d565b5b0492506010810190505b6305f5e1008310611793576305f5e100838161178957611788612a3d565b5b0492506008810190505b61271083106117b85761271083816117ae576117ad612a3d565b5b0492506004810190505b606483106117db57606483816117d1576117d0612a3d565b5b0492506002810190505b600a83106117ea576001810190505b80915050919050565b600073ffffffffffffffffffffffffffffffffffffffff168273ffffffffffffffffffffffffffffffffffffffff1603611862576040517f08c379a000000000000000000000000000000000000000000000000000000000815260040161185990612ab8565b60405180910390fd5b61186b81611380565b156118ab576040517f08c379a00000000000000000000000000000000000000000000000000000000081526004016118a290612b24565b60405180910390fd5b6118b96000838360016113c1565b6118c281611380565b15611902576040517f08c379a00000000000000000000000000000000000000000000000000000000081526004016118f990612b24565b60405180910390fd5b6001600360008473ffffffffffffffffffffffffffffffffffffffff1673ffffffffffffffffffffffffffffffffffffffff16815260200190815260200160002060008282540192505081905550816002600083815260200190815260200160002060006101000a81548173ffffffffffffffffffffffffffffffffffffffff021916908373ffffffffffffffffffffffffffffffffffffffff160217905550808273ffffffffffffffffffffffffffffffffffffffff16600073ffffffffffffffffffffffffffffffffffffffff167fddf252ad1be2c89b69c2b068fc378daa952ba7f163c4a11628f55a4df523b3ef60405160405180910390a4611a0c6000838360016113c7565b5050565b6000604051905090565b600080fd5b600080fd5b60007fffffffff0000000000000000000000000000000000000000000000000000000082169050919050565b611a5981611a24565b8114611a6457600080fd5b50565b600081359050611a7681611a50565b92915050565b600060208284031215611a9257611a91611a1a565b5b6000611aa084828501611a67565b91505092915050565b60008115159050919050565b611abe81611aa9565b82525050565b6000602082019050611ad96000830184611ab5565b92915050565b600081519050919050565b600082825260208201905092915050565b60005b83811015611b19578082015181840152602081019050611afe565b60008484015250505050565b6000601f19601f8301169050919050565b6000611b4182611adf565b611b4b8185611aea565b9350611b5b818560208601611afb565b611b6481611b25565b840191505092915050565b60006020820190508181036000830152611b898184611b36565b905092915050565b6000819050919050565b611ba481611b91565b8114611baf57600080fd5b50565b600081359050611bc181611b9b565b92915050565b600060208284031215611bdd57611bdc611a1a565b5b6000611beb84828501611bb2565b91505092915050565b600073ffffffffffffffffffffffffffffffffffffffff82169050919050565b6000611c1f82611bf4565b9050919050565b611c2f81611c14565b82525050565b6000602082019050611c4a6000830184611c26565b92915050565b611c5981611c14565b8114611c6457600080fd5b50565b600081359050611c7681611c50565b92915050565b60008060408385031215611c9357611c92611a1a565b5b6000611ca185828601611c67565b9250506020611cb285828601611bb2565b9150509250929050565b611cc581611b91565b82525050565b6000602082019050611ce06000830184611cbc565b92915050565b600080600060608486031215611cff57611cfe611a1a565b5b6000611d0d86828701611c67565b9350506020611d1e86828701611c67565b9250506040611d2f86828701611bb2565b9150509250925092565b600060208284031215611d4f57611d4e611a1a565b5b6000611d5d84828501611c67565b91505092915050565b611d6f81611aa9565b8114611d7a57600080fd5b50565b600081359050611d8c81611d66565b92915050565b60008060408385031215611da957611da8611a1a565b5b6000611db785828601611c67565b9250506020611dc885828601611d7d565b9150509250929050565b600080fd5b600080fd5b7f4e487b7100000000000000000000000000000000000000000000000000000000600052604160045260246000fd5b611e1482611b25565b810181811067ffffffffffffffff82111715611e3357611e32611ddc565b5b80604052505050565b6000611e46611a10565b9050611e528282611e0b565b919050565b600067ffffffffffffffff821115611e7257611e71611ddc565b5b611e7b82611b25565b9050602081019050919050565b82818337600083830152505050565b6000611eaa611ea584611e57565b611e3c565b905082815260208101848484011115611ec657611ec5611dd7565b5b611ed1848285611e88565b509392505050565b600082601f830112611eee57611eed611dd2565b5b8135611efe848260208601611e97565b91505092915050565b60008060008060808587031215611f2157611f20611a1a565b5b6000611f2f87828801611c67565b9450506020611f4087828801611c67565b9350506040611f5187828801611bb2565b925050606085013567ffffffffffffffff811115611f7257611f71611a1f565b5b611f7e87828801611ed9565b91505092959194509250565b600067ffffffffffffffff821115611fa557611fa4611ddc565b5b611fae82611b25565b9050602081019050919050565b6000611fce611fc984611f8a565b611e3c565b905082815260208101848484011115611fea57611fe9611dd7565b5b611ff5848285611e88565b509392505050565b600082601f83011261201257612011611dd2565b5b8135612022848260208601611fbb565b91505092915050565b60006020828403121561204157612040611a1a565b5b600082013567ffffffffffffffff81111561205f5761205e611a1f565b5b61206b84828501611ffd565b91505092915050565b6000806040838503121561208b5761208a611a1a565b5b600061209985828601611c67565b92505060206120aa85828601611c67565b9150509250929050565b7f4e487b7100000000000000000000000000000000000000000000000000000000600052602260045260246000fd5b600060028204905060018216806120fb57607f821691505b60208210810361210e5761210d6120b4565b5b50919050565b7f4552433732313a20617070726f76616c20746f2063757272656e74206f776e6560008201527f7200000000000000000000000000000000000000000000000000000000000000602082015250565b6000612170602183611aea565b915061217b82612114565b604082019050919050565b6000602082019050818103600083015261219f81612163565b9050919050565b7f4552433732313a20617070726f76652063616c6c6572206973206e6f7420746f60008201527f6b656e206f776e6572206f7220617070726f76656420666f7220616c6c000000602082015250565b6000612202603d83611aea565b915061220d826121a6565b604082019050919050565b60006020820190508181036000830152612231816121f5565b9050919050565b7f4552433732313a2063616c6c6572206973206e6f7420746f6b656e206f776e6560008201527f72206f7220617070726f76656400000000000000000000000000000000000000602082015250565b6000612294602d83611aea565b915061229f82612238565b604082019050919050565b600060208201905081810360008301526122c381612287565b9050919050565b7f4552433732313a20696e76616c696420746f6b656e2049440000000000000000600082015250565b6000612300601883611aea565b915061230b826122ca565b602082019050919050565b6000602082019050818103600083015261232f816122f3565b9050919050565b7f4552433732313a2061646472657373207a65726f206973206e6f74206120766160008201527f6c6964206f776e65720000000000000000000000000000000000000000000000602082015250565b6000612392602983611aea565b915061239d82612336565b604082019050919050565b600060208201905081810360008301526123c181612385565b9050919050565b600081905092915050565b60006123de82611adf565b6123e881856123c8565b93506123f8818560208601611afb565b80840191505092915050565b600061241082856123d3565b915061241c82846123d3565b91508190509392505050565b7f4552433732313a207472616e736665722066726f6d20696e636f72726563742060008201527f6f776e6572000000000000000000000000000000000000000000000000000000602082015250565b6000612484602583611aea565b915061248f82612428565b604082019050919050565b600060208201905081810360008301526124b381612477565b9050919050565b7f4552433732313a207472616e7366657220746f20746865207a65726f2061646460008201527f7265737300000000000000000000000000000000000000000000000000000000602082015250565b6000612516602483611aea565b9150612521826124ba565b604082019050919050565b6000602082019050818103600083015261254581612509565b9050919050565b7f4552433732313a20617070726f766520746f2063616c6c657200000000000000600082015250565b6000612582601983611aea565b915061258d8261254c565b602082019050919050565b600060208201905081810360008301526125b181612575565b9050919050565b7f4552433732313a207472616e7366657220746f206e6f6e20455243373231526560008201527f63656976657220696d706c656d656e7465720000000000000000000000000000602082015250565b6000612614603283611aea565b915061261f826125b8565b604082019050919050565b6000602082019050818103600083015261264381612607565b9050919050565b7f45524337323155524953746f726167653a2055524920736574206f66206e6f6e60008201527f6578697374656e7420746f6b656e000000000000000000000000000000000000602082015250565b60006126a6602e83611aea565b91506126b18261264a565b604082019050919050565b600060208201905081810360008301526126d581612699565b9050919050565b60008190508160005260206000209050919050565b60006020601f8301049050919050565b600082821b905092915050565b60006008830261273e7fffffffffffffffffffffffffffffffffffffffffffffffffffffffffffffffff82612701565b6127488683612701565b95508019841693508086168417925050509392505050565b6000819050919050565b600061278561278061277b84611b91565b612760565b611b91565b9050919050565b6000819050919050565b61279f8361276a565b6127b36127ab8261278c565b84845461270e565b825550505050565b600090565b6127c86127bb565b6127d3818484612796565b505050565b5b818110156127f7576127ec6000826127c0565b6001810190506127d9565b5050565b601f82111561283c5761280d816126dc565b612816846126f1565b81016020851015612825578190505b612839612831856126f1565b8301826127d8565b50505b505050565b600082821c905092915050565b600061285f60001984600802612841565b1980831691505092915050565b6000612878838361284e565b9150826002028217905092915050565b61289182611adf565b67ffffffffffffffff8111156128aa576128a9611ddc565b5b6128b482546120e3565b6128bf8282856127fb565b600060209050601f8311600181146128f257600084156128e0578287015190505b6128ea858261286c565b865550612952565b601f198416612900866126dc565b60005b8281101561292857848901518255600182019150602085019450602081019050612903565b868310156129455784890151612941601f89168261284e565b8355505b6001600288020188555050505b505050505050565b600081519050919050565b600082825260208201905092915050565b60006129818261295a565b61298b8185612965565b935061299b818560208601611afb565b6129a481611b25565b840191505092915050565b60006080820190506129c46000830187611c26565b6129d16020830186611c26565b6129de6040830185611cbc565b81810360608301526129f08184612976565b905095945050505050565b600081519050612a0a81611a50565b92915050565b600060208284031215612a2657612a25611a1a565b5b6000612a34848285016129fb565b91505092915050565b7f4e487b7100000000000000000000000000000000000000000000000000000000600052601260045260246000fd5b7f4552433732313a206d696e7420746f20746865207a65726f2061646472657373600082015250565b6000612aa2602083611aea565b9150612aad82612a6c565b602082019050919050565b60006020820190508181036000830152612ad181612a95565b9050919050565b7f4552433732313a20746f6b656e20616c7265616479206d696e74656400000000600082015250565b6000612b0e601c83611aea565b9150612b1982612ad8565b602082019050919050565b60006020820190508181036000830152612b3d81612b01565b905091905056fea2646970667358221220c0a02a8eb98a02f0b46a708e7e2c4b26f550f4dc036d8dd0065729f86f34718664736f6c63430008130033",
  "linkReferences": {},
  "deployedLinkReferences": {}
}